:20000000FC31C08ED0BC00108ED88EC0BE2900E80200EBFE2EACE80500D0E073F7C350E483
:20002000F7240274FA58E6F6C348656C6C6F20576F726C640D8A90909090909090909090EB
:200040009090909090909090909090909090909090909090909090909090909090909090A0
:20006000909090909090909090909090909090909090909090909090909090909090909080
:20008000909090909090909090909090909090909090909090909090909090909090909060
:2000A000909090909090909090909090909090909090909090909090909090909090909040
:20FFE00090909090909090909090909090909090EA000000F0000000000000000000000027
:00000001FF
