:10FC00008EF87F7F00817F00827F00837F00847F6A
:10FC100000857F00867F00877C00879687810A2683
:10FC2000487F00877C00869686810A263C7F008676
:10FC30007C00859685810A26307F00857C0084962D
:10FC400084810A26247F00847C00839683810A268F
:10FC5000187F00837C00829682810A260C7F0082B6
:10FC60007C00819681810A270BBDFC75BDFCE8BD37
:10FC7000FCF320A43E968127078B30BDFCFA200BB5
:10FC8000968227178B30BDFCFA200796828B30BDF9
:10FC9000FCFA96838B30BDFCFA200B968327108BE1
:10FCA00030BDFCFA200096848B30BDFCFA200B9608
:10FCB0008427108B30BDFCFA200096858B30BDFC6C
:10FCC000FA200B968527108B30BDFCFA2000968613
:10FCD0008B30BDFCFA2009968627058B30BDFCFAD7
:10FCE00096878B30BDFCFA39860DBDFCFA860ABDBD
:0EFCF000FCFA39CE00FF0926FD39B7F00039C5
:02FFFE00FC0005
:00000001FF
