:10000000073F20CF44005B7B0477CC0409041BCC62
:10001000040B0480CC040C1B090160016E043F3FFB
:1000200002B475FF3F008A043E3F02B43B2D20CC52
:1000300004270C0413E4411C00ABE4421C01E5E47A
:10004000431C01CAE4441C0310E4471C013AE44C7D
:100050001C03B5E4531C00F41F300007FFCF042736
:10006000E71418193F0284E47F980EE7FF18710F18
:1000700064133F02B4A7011B67E40D981805010340
:100080001A028502CD042BCF0429040D3F02B404CB
:100090000A3F02B4170502E40A1864CF24133F0292
:1000A000B41F0060CD040DCE040E173F02DB3B747D
:1000B0003F02690D040E3F02693F035B0D840D3F53
:1000C00002693F035B3F005B0C042BE4021E00222D
:1000D0001811CC04113F02DBCE840D0C0411E40492
:1000E0009C002206018E040E050077088D040D7514
:1000F000081F00AE3F02DBE6081D001DCE04110EF6
:100100006400C13F02693F035B3F005B0C042BE4CA
:10011000021E0022181CCC040F3F02DB020E041149
:10012000CE6400E6089803CC040A0C040FE4031C18
:1001300000220E041186011F00F73F02DB3F00A4DE
:100140000C0407920D04010E04020F040377100D36
:1001500004040E04050F04060C040075FF1F0409B7
:10016000CC040013CC0408CC040A04001B0CCC04FF
:100170000013CC0408CC040A0401CC041112CC04F2
:10018000077710CD0404CE0405CF04067510CD0406
:1001900001CE0402CF04030E04113B0F0D040D3FEA
:1001A00002690D040E3F02691F002220CE642C0E4E
:1001B0006432CC040D0E6434CC040E0E642ECC8458
:1001C0000D0E64300701CFE40D173B0B0E642C1CA1
:1001D000001D3B571F00223F02DBA6011E0250E616
:1001E000011D0250173B700E642CBC01ABCE0411F4
:1001F0003F02DB3F00A40F041102CF643401CF643F
:10020000320C840DCF642E059BCD840D06010EE4C7
:100210000DCF64300F6222CEE40D04FFCF642C1F9B
:100220000022999B3F02843B1DD3D3D3D3CF04122A
:100230003F02843B116F041203C13B0117012C04E0
:100240002AD0CC042A170710EF425914E7019A78F4
:100250000C04076440121F001D3031323334353630
:10026000373839414243444546CD0412515151512A
:10027000450F0D62593F02B40D0412450F0D62592E
:100280003F02B41777100480B005000608121A74F4
:1002900020B03B193B101244805161C1FA763B06F5
:1002A000457F01751817200420F87EC0C00405F8AA
:1002B0007E17000077107640C205083B693B6774E3
:1002C000403B63521A0474401B027640F9733B565C
:1002D00076407510170C042B18071720C1C2CC04E8
:1002E0002B0F0427EF0429140F2413CF0427E42035
:1002F00018633F0246040FD2D2D2D242D1D1D1D11B
:1003000045F046F061C10362C20401CC042B1B51CD
:100310003B493F00A43B448601770885007508CD22
:10032000040FCE04103B3804FFCC04293F008A049C
:100330003A3F02B420CC042A0D040F0E0410AE0480
:100340000E7708AD040D75081E001D191C5A1C07F8
:10035000043F0269FB7B3B071F002207031B0207C8
:100360003204203F02B4FB791706FFCE04280D04A7
:100370000D3F02690D040E3F02690D04283F02691A
:100380000D042A3F02690F04290FA40DEF04281859
:1003900009CF0429C13F02691B6C0D042A3F026981
:1003A0000E040E8E0428050077088D040D75083F95
:1003B00000A41F03253F0284E43A987920CC042A44
:1003C0003F0224CD040D3F0224CD040E3F022459E8
:1003D000031F840DCD04283F02240C042A9C001D19
:1003E000C3CF04293F02240F0429EF042818060173
:1003F000CFE40DDB6C0C042A9C001D1F03B500002C
:1004000000000000000000000000000000000000EC
:1004100000000000000000000000000000000000DC
:1004200000000000000000000000000000000000CC
:1004300000000000000000000000000000000000BC
:10300000E43F1C301CE4481C3C50E4461C3C6AE491
:10301000581C3C8AE44D1C3CA21F001D3F008A073F
:10302000FF0F303DE4001C302E3F02B41B7307FF3E
:103030000F3121E4001C00223F02B41B73504950A1
:1030400042554720436F6D6D616E64733A0D0A0AF5
:10305000416C746572204D656D6F7279206161619C
:1030600061202041616161613C43523E0D0A53651C
:103070007420427265616B706F696E74206E2020DF
:1030800020426E20616161613C43523E0D0A436CF7
:1030900065617220427265616B706F696E74206E3B
:1030A00020436E3C43523E0D0A44756D7020746F90
:1030B00020746170652020202020202044616161FF
:1030C0006120626262623C43523E0D0A476F746F38
:1030D00020416464726573732061616161202047DF
:1030E000616161613C43523E0D0A4C6F616420484E
:1030F00065782046696C652020202020204C3C43C8
:10310000523E0D0A53656520526567697374657296
:1031100020526E20202020536E3C43523E0D0A0A5E
:10312000005574696C69747920526F7574696E65A5
:10313000733A0D0A0A46696E642048657820537414
:1031400072696E67202020204661616161206262A1
:10315000626220787879793C43523E0D0A46696E66
:1031600064204865782056616C75652020202020F9
:10317000586161616120626262622078783C4352EA
:103180003E0D0A486578204C697374202020202069
:1031900020202020202048616161612062626262FB
:1031A0003C43523E0D0A4D6F7665202020202020A2
:1031B0002020202020202020204D6161616120629C
:1031C00062626220636363633C43523E0D0A000007
:1031D00000000000000000000000000000000000EF
:1031E00000000000000000000000000000000000DF
:1031F00000000000000000000000000000000000CF
:1032000000000000000000000000000000000000BE
:103C0000CD0FFACE0FFB177640770275183F02DB17
:103C10003B6E3BFA3B0FCD0FFCCE0FFD3BF0CD0FC3
:103C2000FECE0FFF17DA02D900170D0FFA0E0FFBA9
:103C30003B733B4CED0FFC16EE0FFD173F008A0D5A
:103C40000FFA3F02690D0FFB3BF904203F02B41746
:103C50003F3C073B670D8FFA3BE93B6E3B4C9E00B8
:103C6000220C0FFB440F986D1B693BE53BCF0C8F7B
:103C7000FAEC0FFE980D07010FEFFAEC0FFF980317
:103C80003F3C3C3F3C2A9AD71B643BC53F008A0C13
:103C90008FFAEC0FFF98033F3C3C3F3C2A9EBC5FF1
:103CA0001B6D3F3C07ED0FFA1984EE0FFB1D3CEB3B
:103CB0000C8FFACC8FFE3F3C2A9E00223B073F3CF4
:103CC000253B091B6B0D0FFE0E0FFF17CD0FFECE10
:103CD0000FFF170D0FFC0E0FFD3B07CD0FFCCE0F96
:103CE000FD17FA00E6FF9802F900173B6677093BDB
:103CF00054AE0FFBAD0FFA75018E0FFD8D0FFC3B1F
:103D00004B75080C8FFCCC8FFE3F3CC53B543F3CB1
:103D1000CC3B400C8FFCCC8FFEED0FFA196BEE0FF5
:053D2000FB19669B2267
:00000001FF
