:10000000758780758921758DFF758BFF759852D224
:100010008E120757383033312041542840295F4D24
:100020004F4E49544F520A0D4261736564206F6E02
:100030002038303331204D4F4E49544F52205265B5
:100040007620420A0D6279204672616E6B205275ED
:10005000646C65790A0D001207570A0D3830333188
:100060003E0012076D545FB449031200A9B4450362
:1000700012019FB45303120290B4420312039AB4C4
:100080005203120440B44A031205E0B44C031205B3
:10009000E3B44803120642B443031207BFB4460355
:1000A0001208921207B30200111207572D45646916
:1000B0007420496E7465726E616C2052414D20242B
:1000C000303020746F202437462E0A0D456E74653B
:1000D000722053746172742041646472657373207A
:1000E000696E2048657820287878293A2000120720
:1000F00037F81207A8120757456E746572206E65AF
:100100007720646174612061667465722070726F1B
:100110006D707420273E270A0D3C43523E20746FB9
:1001200020736B697020616464726573732C203C6A
:10013000513E20746F20657869742E0A0D00E81214
:100140000747743A12077AE6120747120757203E0C
:10015000200012076DB40D02801EB451028003B45A
:1001600071061207A8020057120782C4FA12076D1F
:100170001207824AF61207A808E8B880C11207A839
:100180000200571207572D52414D3E00120737F813
:10019000743A12077A120737F61207A802005712AC
:1001A00007572D456469742045787465726E616CDB
:1001B0002052414D0A0D456E746572205374617270
:1001C00074204164647265737320696E2048657899
:1001D000202878787878293A2000120737F583129A
:1001E0000737F582AB83AC821207A8120757456E1A
:1001F000746572206E657720646174612061667435
:1002000065722070726F6D707420273E270A0D3C56
:1002100043523E20746F20736B6970206164647276
:100220006573732C203C513E20746F20657869748F
:100230002E0A0D008B838C82E583120747E582121C
:100240000747743A12077AE4E0120747AB83AC829F
:10025000120757203E20008B838C8212076DB40D4D
:1002600002801EB451028003B471061207A8020076
:1002700057120782C4FA12076D1207824AF012075A
:10028000A80582E582B400020583AB83AC8280A41A
:10029000120757534652730A0A0A0D503020202085
:1002A0003D2000E5801207471207572020202050EC
:1002B000312020203D2000E59012074712075720EB
:1002C00020202050322020203D2000E5A0120747AA
:1002D0001207572020202050332020203D2000E509
:1002E000B01207471207570A0D544D4F44203D20C6
:1002F00000E5891207471207572020202054434F5A
:100300004E203D2000E58812074712075720202085
:100310002053434F4E203D2000E598120747120717
:10032000572020202050535720203D2000E5D01298
:1003300007471207570A0D50434F4E203D2000E556
:1003400087120747120757202020205448302020CA
:100350003D2000E58C12074712075720202020542B
:100360004C3020203D2000E58A1207471207572015
:1003700020202054483120203D2000E58D120747E1
:1003800012075720202020544C3120203D2000E52A
:100390008B1207471207A80200571207572D4C6906
:1003A0007374206120323536204279746520426CA6
:1003B0006F636B206F6620524F4D2F52414D0A0ADA
:1003C0000D426C6F636B3E00120737F91207570A34
:1003D0000D202020202020303020303120303220CD
:1003E0003033203034203035203036203037203044
:1003F00038203039203041203042203043203044F2
:100400002030452030460A0D00898378008882120A
:1004100007A8E583120747E58212074774201207F1
:100420007A12077A8882E493120747742012077AB7
:1004300008E8540FB400EDB800D31207A802005723
:100440001207572D4C697374207468652031323857
:10045000204279746520426C6F636B206F6620497F
:100460006E7465726E616C2052414D0A0D0A0D204A
:10047000202020342042414E4B53204F462038202C
:10048000524547495354455253202852302D523734
:10049000290A0D2020202030302030312030322019
:1004A0003033203034203035203036203037203083
:1004B0003820303920304120304220304320304431
:1004C0002030452030460A0D202020205230205276
:1004D00031205232205233205234205235205236AD
:1004E00020523720523020523120523220523320B5
:1004F00052342052352052362052370A0D007800EF
:100500001207A8B820591207570A0D2020202042B0
:1005100049542D4144445245535341424C45205384
:10052000504143450A0D202020203030203031201A
:1005300030322030332030342030352030362030F7
:1005400037203038203039203041203042203043AD
:100550002030442030452030460A0D001207A8B84C
:1005600030531207570A0D20202020534352415484
:10057000434850414420415245410A0D202020204B
:1005800030302030312030322030332030342030B1
:100590003520303620303720303820303920304177
:1005A0002030422030432030442030452030460A5D
:1005B0000D001207A8E8120747742012077A1207E5
:1005C0007AE6120747742012077A08E8540FB4003D
:1005D000F0E8B4800280030205001207A802005769
:1005E0000220001207572D55706C6F61642048651A
:1005F000782046696C650A0D0012076DB43A3D1209
:100600000737F9120737F583120737F582120737D4
:10061000B40012120737F01207B3A3D9F612073746
:100620001207A880D41207371207570A0D444F4EFD
:1006300045204C4F41442121200A0D001207A802F9
:1006400000571207570A0D49203D20526561642F5B
:10065000577269746520496E742052414D0A0D45E8
:10066000203D20526561642F57726974652045787A
:10067000742052414D0A0D53203D20446973706C23
:10068000617920534652730A0D42203D204C697314
:100690007420323536206279746573206F66204588
:1006A000585420524F4D2F52414D0A0D52203D209B
:1006B0004C69737420313238206279746573206F0D
:1006C0006620496E742052414D0A0D43203D20435F
:1006D0006865636B204558542052414D0A0D4620F1
:1006E0003D2046696C6C204558542052414D0A0DFE
:1006F0004A203D204A756D7020746F2072756E20FF
:1007000050726F67730A0D4C203D204C6F6164205E
:100710004845582046696C6520666F722050726F9C
:1007200067730A0D48203D2054686973204D656E3B
:10073000750A0D0002005712076D120782C4FA12E3
:10074000076D1207824A22FAC412079612077AEA44
:1007500012079612077A22D083D082E4933099FD53
:10076000C299F599A3E493B400F37401733098FD32
:10077000C298E599547F12077A223099FDC299F503
:100780009922C2D79430F5F0940A20D706E5F09468
:1007900007F5F0E5F022540FC2D7F5F0940AE5F022
:1007A00020D7022407243022740A12077A740D120B
:1007B000077A22740A75F0FFD5F0FD1470F7221243
:1007C00007572D436865636B696E672052414D2E54
:1007D0002E2E0A0D001207575761726E696E673A26
:1007E00020546869732077696C6C20657261736549
:1007F000206D656D6F72792E0A0D507265737320CE
:100800003C43523E20746F20636F6E74696E756551
:10081000206F72203C513E20746F20657869742EE1
:100820000012076DB40D02800CB45103020057B4DE
:1008300071030200579020007401F000E0B401033E
:10084000A380F5E58214F582B4FF08E58314F583EF
:100850007582FFC082C0831207570A0A0D52414DAC
:100860002053746172742024323030300A0D5241AA
:100870004D20456E642020202400D083D082E58363
:10088000120747E5821207471207570A0A0D0002AE
:1008900000571207572D46696C6C2052414D0A0DC6
:1008A000456E746572205374617274204164647281
:1008B00065737320696E2048657820287878787889
:1008C000293A2000120737FD120737FE1207570A90
:1008D0000D456E74657220456E64204164647265D6
:1008E000737320696E204865782028787878782995
:1008F00020203A2000120737FB120737FC12075757
:100900000A0D456E7465722056616C756520696EBE
:100910002048657820287878292020202020202051
:100920002020203A2000120737FF1207A88D838E5F
:1009300082EFF0E5828CF0B5F009E5838BF0B5F03D
:10094000028003A380EB0200579020007401F000A6
:10095000E0B40103A380F5E58214F582B4FF08E555
:080960008314F5837582FF2268
:00000001FF
