:10FC00008EF87F7F008DCEFD01DF85DF87CEFC93F0
:10FC1000BDFC3DBDFC33BDFC4A20F837F6F001C405
:10FC20000427F933B7F00039B6F001840227F9B69A
:10FC3000F000398DF37D008D26028DDF39A600811D
:10FC4000002706BDFC1B0820F4398108271F817F8F
:10FC5000271B810D270C811B272EDE87A70008DFBD
:10FC60008739860DBDFC1B860ABDFC1B39DE879CCF
:10FC700085270D09DF878620BDFC1B8608BDFC1B80
:10FC800039CEFC93BDFC3D39CEFCEFBDFC3D7EFC86
:10FC9000913E3953657269616C20492F4F2074651C
:10FCA00073740D0A5479706520746578742C20453E
:10FCB000534320746F20657869740D0A0D0A414220
:10FCC000434445464748494A4B4C4D4E4F5051528C
:10FCD000535455565758595A3031323334353637D4
:10FCE00038392D3D5B5D3B232C2E2F5C0D0A0045E2
:10FCF00045786974696E6720656469746F720D0A6E
:01FD00000002
:08FFF800FC91FC91FC91FC005E
:00000001FF
