:100000000200333099FDC299F599223098FDC298CB
:10001000E59922758780758921758DFF758BFF7530
:100020009852D29CD28E22E4936007120003A3E47C
:1000300080F62211139000BF1127800012000BB42C
:100040001B089000911200278030120003B4080CA6
:100050007420120003740812000380E0B47F11744E
:10006000081200037420120003740812000380CCED
:10007000B40DC9740A12000380C21188740D1200F5
:1000800003740A12000380AD79FF78FFD8FED9FA15
:10009000220D0A45786974696E672074686520537B
:1000A000657269616C204563686F2050726F67727A
:1000B000616D2E20476F6F64627965210D0A0057CC
:1000C000656C636F6D6520746F207468652053657F
:1000D0007269616C204563686F2050726F6772614E
:1000E0006D210D0A5479706520746578742C207424
:1000F0007970652045534320746F20657869742EAC
:030100000D0A00E5
:00000001FF
